{
  "contractName": "Certify",
  "abi": [
    {
      "inputs": [],
      "payable": false,
      "stateMutability": "nonpayable",
      "type": "constructor"
    },
    {
      "constant": true,
      "inputs": [],
      "name": "registrationCount",
      "outputs": [
        {
          "internalType": "uint256",
          "name": "",
          "type": "uint256"
        }
      ],
      "payable": false,
      "stateMutability": "view",
      "type": "function"
    },
    {
      "constant": true,
      "inputs": [
        {
          "internalType": "uint256",
          "name": "",
          "type": "uint256"
        }
      ],
      "name": "students",
      "outputs": [
        {
          "internalType": "uint256",
          "name": "id",
          "type": "uint256"
        },
        {
          "internalType": "string",
          "name": "name",
          "type": "string"
        },
        {
          "internalType": "string",
          "name": "email",
          "type": "string"
        },
        {
          "internalType": "address",
          "name": "wallet",
          "type": "address"
        }
      ],
      "payable": false,
      "stateMutability": "view",
      "type": "function"
    },
    {
      "constant": false,
      "inputs": [
        {
          "internalType": "string",
          "name": "_name",
          "type": "string"
        },
        {
          "internalType": "string",
          "name": "_email",
          "type": "string"
        }
      ],
      "name": "Register",
      "outputs": [],
      "payable": false,
      "stateMutability": "nonpayable",
      "type": "function"
    }
  ],
  "bytecode": "0x60806040526000805534801561001457600080fd5b5061007a60405180604001604052806008815260200167536872697368746960c01b8152506040518060400160405280601681526020017f73687269736874696737393740676d61696c2e636f6d0000000000000000000081525061007f60201b60201c565b6101d3565b600082511161008d57600080fd5b600081511161009b57600080fd5b60008054600190810180835560408051608081018252828152602080820188815282840188905233606084015293865284815291909420845181559151805192936100ee93908501929190910190610138565b506040820151805161010a916002840191602090910190610138565b5060609190910151600390910180546001600160a01b0319166001600160a01b039092169190911790555050565b828054600181600116156101000203166002900490600052602060002090601f016020900481019282601f1061017957805160ff19168380011785556101a6565b828001600101855582156101a6579182015b828111156101a657825182559160200191906001019061018b565b506101b29291506101b6565b5090565b6101d091905b808211156101b257600081556001016101bc565b90565b610580806101e26000396000f3fe608060405234801561001057600080fd5b50600436106100415760003560e01c806306ead22e146100465780630d3eafd614610161578063d6192e291461017b575b600080fd5b6100636004803603602081101561005c57600080fd5b50356102aa565b604051808581526020018060200180602001846001600160a01b03166001600160a01b03168152602001838103835286818151815260200191508051906020019080838360005b838110156100c25781810151838201526020016100aa565b50505050905090810190601f1680156100ef5780820380516001836020036101000a031916815260200191505b50838103825285518152855160209182019187019080838360005b8381101561012257818101518382015260200161010a565b50505050905090810190601f16801561014f5780820380516001836020036101000a031916815260200191505b50965050505050505060405180910390f35b6101696103f1565b60408051918252519081900360200190f35b6102a86004803603604081101561019157600080fd5b8101906020810181356401000000008111156101ac57600080fd5b8201836020820111156101be57600080fd5b803590602001918460018302840111640100000000831117156101e057600080fd5b91908080601f016020809104026020016040519081016040528093929190818152602001838380828437600092019190915250929594936020810193503591505064010000000081111561023357600080fd5b82018360208201111561024557600080fd5b8035906020019184600183028401116401000000008311171561026757600080fd5b91908080601f0160208091040260200160405190810160405280939291908181526020018383808284376000920191909152509295506103f7945050505050565b005b600160208181526000928352604092839020805481840180548651600296821615610100026000190190911695909504601f810185900485028601850190965285855290949193929091908301828280156103465780601f1061031b57610100808354040283529160200191610346565b820191906000526020600020905b81548152906001019060200180831161032957829003601f168201915b50505060028085018054604080516020601f60001961010060018716150201909416959095049283018590048502810185019091528181529596959450909250908301828280156103d85780601f106103ad576101008083540402835291602001916103d8565b820191906000526020600020905b8154815290600101906020018083116103bb57829003601f168201915b505050600390930154919250506001600160a01b031684565b60005481565b600082511161040557600080fd5b600081511161041357600080fd5b6000805460019081018083556040805160808101825282815260208082018881528284018890523360608401529386528481529190942084518155915180519293610466939085019291909101906104b0565b50604082015180516104829160028401916020909101906104b0565b5060609190910151600390910180546001600160a01b0319166001600160a01b039092169190911790555050565b828054600181600116156101000203166002900490600052602060002090601f016020900481019282601f106104f157805160ff191683800117855561051e565b8280016001018555821561051e579182015b8281111561051e578251825591602001919060010190610503565b5061052a92915061052e565b5090565b61054891905b8082111561052a5760008155600101610534565b9056fea265627a7a7231582070c4136094b5a5bd372b718fb4c4b53963a1f79c6d30e6d90339b15747e1995a64736f6c63430005100032",
  "source": "pragma solidity ^0.5.0;\n\ncontract Certify {\n    uint public registrationCount = 0;\n\n    struct Student{\n      uint id;\n      string name;\n      string email;\n      address wallet;\n    }\n\n    mapping(uint => Student) public students;\n\n    constructor() public {\n      Register(\"Shrishti\",\"shrishtig797@gmail.com\");\n    }\n\n    function Register(string memory _name, string memory _email) public {\n\n          //Check if name and email are empty\n          require(bytes(_name).length >0 );\n          require(bytes(_email).length >0 );\n\n          //Increase Registration Count\n          registrationCount ++;\n\n          //Create Event\n          students[registrationCount] = Student(registrationCount, _name, _email, msg.sender);\n    }\n\n}\n",
  "sourcePath": "/home/shrish/cert/contracts/Certify.sol",
  "compiler": {
    "name": "solc",
    "version": "0.5.16+commit.9c3226ce.Emscripten.clang"
  },
  "schemaVersion": "3.0.23",
  "updatedAt": "2020-02-09T07:47:50.825Z",
  "networkType": "ethereum",
  "devdoc": {
    "methods": {}
  },
  "userdoc": {
    "methods": {}
  }
}