{
  "contractName": "Certify",
  "abi": [
    {
      "constant": true,
      "inputs": [],
      "name": "registrationCount",
      "outputs": [
        {
          "internalType": "uint256",
          "name": "",
          "type": "uint256"
        }
      ],
      "payable": false,
      "stateMutability": "view",
      "type": "function"
    }
  ],
  "bytecode": "0x608060405260008055348015601357600080fd5b506080806100226000396000f3fe6080604052348015600f57600080fd5b506004361060285760003560e01c80630d3eafd614602d575b600080fd5b60336045565b60408051918252519081900360200190f35b6000548156fea265627a7a72315820e8603b3e2535f9c9680ecaaddbbdc517dc12a6c94f250c6b11fea36ba559bfbe64736f6c63430005100032",
  "source": "pragma solidity ^0.5.0;\n\ncontract Certify {\n    uint public registrationCount = 0;\n}\n",
  "sourcePath": "/home/shrish/cert/contracts/Certify.sol",
  "compiler": {
    "name": "solc",
    "version": "0.5.16+commit.9c3226ce.Emscripten.clang"
  },
  "schemaVersion": "3.0.23",
  "updatedAt": "2020-02-08T13:42:34.817Z",
  "networkType": "ethereum",
  "devdoc": {
    "methods": {}
  },
  "userdoc": {
    "methods": {}
  }
}