{
  "contractName": "Certify",
  "abi": [
    {
      "inputs": [],
      "payable": false,
      "stateMutability": "nonpayable",
      "type": "constructor"
    },
    {
      "anonymous": false,
      "inputs": [
        {
          "indexed": false,
          "internalType": "uint256",
          "name": "id",
          "type": "uint256"
        },
        {
          "indexed": false,
          "internalType": "string",
          "name": "uid",
          "type": "string"
        },
        {
          "indexed": false,
          "internalType": "string",
          "name": "profile",
          "type": "string"
        },
        {
          "indexed": false,
          "internalType": "string",
          "name": "name",
          "type": "string"
        },
        {
          "indexed": false,
          "internalType": "string",
          "name": "email",
          "type": "string"
        },
        {
          "indexed": false,
          "internalType": "address",
          "name": "wallet",
          "type": "address"
        }
      ],
      "name": "register",
      "type": "event"
    },
    {
      "constant": true,
      "inputs": [],
      "name": "registrationCount",
      "outputs": [
        {
          "internalType": "uint256",
          "name": "",
          "type": "uint256"
        }
      ],
      "payable": false,
      "stateMutability": "view",
      "type": "function"
    },
    {
      "constant": true,
      "inputs": [
        {
          "internalType": "uint256",
          "name": "",
          "type": "uint256"
        }
      ],
      "name": "students",
      "outputs": [
        {
          "internalType": "uint256",
          "name": "id",
          "type": "uint256"
        },
        {
          "internalType": "string",
          "name": "uid",
          "type": "string"
        },
        {
          "internalType": "string",
          "name": "profile",
          "type": "string"
        },
        {
          "internalType": "string",
          "name": "name",
          "type": "string"
        },
        {
          "internalType": "string",
          "name": "email",
          "type": "string"
        },
        {
          "internalType": "address",
          "name": "wallet",
          "type": "address"
        }
      ],
      "payable": false,
      "stateMutability": "view",
      "type": "function"
    },
    {
      "constant": false,
      "inputs": [
        {
          "internalType": "string",
          "name": "_profile",
          "type": "string"
        },
        {
          "internalType": "string",
          "name": "_uid",
          "type": "string"
        },
        {
          "internalType": "string",
          "name": "_name",
          "type": "string"
        },
        {
          "internalType": "string",
          "name": "_email",
          "type": "string"
        }
      ],
      "name": "Register",
      "outputs": [],
      "payable": false,
      "stateMutability": "nonpayable",
      "type": "function"
    }
  ],
  "bytecode": "0x60806040526000805534801561001457600080fd5b50610acf806100246000396000f3fe608060405234801561001057600080fd5b50600436106100415760003560e01c806306ead22e146100465780630d3eafd61461022d578063b182b96314610247575b600080fd5b6100636004803603602081101561005c57600080fd5b503561047c565b6040518087815260200180602001806020018060200180602001866001600160a01b03166001600160a01b0316815260200185810385528a818151815260200191508051906020019080838360005b838110156100ca5781810151838201526020016100b2565b50505050905090810190601f1680156100f75780820380516001836020036101000a031916815260200191505b5085810384528951815289516020918201918b019080838360005b8381101561012a578181015183820152602001610112565b50505050905090810190601f1680156101575780820380516001836020036101000a031916815260200191505b5085810383528851815288516020918201918a019080838360005b8381101561018a578181015183820152602001610172565b50505050905090810190601f1680156101b75780820380516001836020036101000a031916815260200191505b50858103825287518152875160209182019189019080838360005b838110156101ea5781810151838201526020016101d2565b50505050905090810190601f1680156102175780820380516001836020036101000a031916815260200191505b509a505050505050505050505060405180910390f35b6102356106e3565b60408051918252519081900360200190f35b61047a6004803603608081101561025d57600080fd5b810190602081018135600160201b81111561027757600080fd5b82018360208201111561028957600080fd5b803590602001918460018302840111600160201b831117156102aa57600080fd5b91908080601f0160208091040260200160405190810160405280939291908181526020018383808284376000920191909152509295949360208101935035915050600160201b8111156102fc57600080fd5b82018360208201111561030e57600080fd5b803590602001918460018302840111600160201b8311171561032f57600080fd5b91908080601f0160208091040260200160405190810160405280939291908181526020018383808284376000920191909152509295949360208101935035915050600160201b81111561038157600080fd5b82018360208201111561039357600080fd5b803590602001918460018302840111600160201b831117156103b457600080fd5b91908080601f0160208091040260200160405190810160405280939291908181526020018383808284376000920191909152509295949360208101935035915050600160201b81111561040657600080fd5b82018360208201111561041857600080fd5b803590602001918460018302840111600160201b8311171561043957600080fd5b91908080601f0160208091040260200160405190810160405280939291908181526020018383808284376000920191909152509295506106e9945050505050565b005b600160208181526000928352604092839020805481840180548651600296821615610100026000190190911695909504601f810185900485028601850190965285855290949193929091908301828280156105185780601f106104ed57610100808354040283529160200191610518565b820191906000526020600020905b8154815290600101906020018083116104fb57829003601f168201915b50505060028085018054604080516020601f60001961010060018716150201909416959095049283018590048502810185019091528181529596959450909250908301828280156105aa5780601f1061057f576101008083540402835291602001916105aa565b820191906000526020600020905b81548152906001019060200180831161058d57829003601f168201915b5050505060038301805460408051602060026001851615610100026000190190941693909304601f810184900484028201840190925281815294959493509083018282801561063a5780601f1061060f5761010080835404028352916020019161063a565b820191906000526020600020905b81548152906001019060200180831161061d57829003601f168201915b5050505060048301805460408051602060026001851615610100026000190190941693909304601f81018490048402820184019092528181529495949350908301828280156106ca5780601f1061069f576101008083540402835291602001916106ca565b820191906000526020600020905b8154815290600101906020018083116106ad57829003601f168201915b505050600590930154919250506001600160a01b031686565b60005481565b60008451116106f757600080fd5b600083511161070557600080fd5b600082511161071357600080fd5b600081511161072157600080fd5b6000805460019081018083556040805160c08101825282815260208082018a81528284018a905260608301899052608083018890523360a08401529386528481529190942084518155915180519293610782939085019291909101906109ff565b506040820151805161079e9160028401916020909101906109ff565b50606082015180516107ba9160038401916020909101906109ff565b50608082015180516107d69160048401916020909101906109ff565b5060a08201518160050160006101000a8154816001600160a01b0302191690836001600160a01b031602179055509050507f572187796b114511853bfeadb6f084e0e2dfb64d591edb6815a21f0df178c6e360005485858585336040518087815260200180602001806020018060200180602001866001600160a01b03166001600160a01b0316815260200185810385528a818151815260200191508051906020019080838360005b8381101561089757818101518382015260200161087f565b50505050905090810190601f1680156108c45780820380516001836020036101000a031916815260200191505b5085810384528951815289516020918201918b019080838360005b838110156108f75781810151838201526020016108df565b50505050905090810190601f1680156109245780820380516001836020036101000a031916815260200191505b5085810383528851815288516020918201918a019080838360005b8381101561095757818101518382015260200161093f565b50505050905090810190601f1680156109845780820380516001836020036101000a031916815260200191505b50858103825287518152875160209182019189019080838360005b838110156109b757818101518382015260200161099f565b50505050905090810190601f1680156109e45780820380516001836020036101000a031916815260200191505b509a505050505050505050505060405180910390a150505050565b828054600181600116156101000203166002900490600052602060002090601f016020900481019282601f10610a4057805160ff1916838001178555610a6d565b82800160010185558215610a6d579182015b82811115610a6d578251825591602001919060010190610a52565b50610a79929150610a7d565b5090565b610a9791905b80821115610a795760008155600101610a83565b9056fea265627a7a723158206d1d5e88f7608fd56e85098237dd03abf5d7da730c37090f2357cc657630c53564736f6c63430005100032",
  "source": "pragma solidity ^0.5.0;\n\ncontract Certify {\n    uint public registrationCount = 0;\n\n    struct Student{\n      uint id;\n      string uid;\n      string profile;\n      string name;\n      string email;\n      address wallet;\n    }\n\n    mapping(uint => Student) public students;\n\n    event register(\n      uint id,\n      string uid,\n      string profile,\n      string name,\n      string email,\n      address wallet\n    );\n\n    constructor() public {\n      //Register(\"Shrishti\",\"shrishtig797@gmail.com\");\n    }\n\n    function Register(string memory _profile, string memory _uid,string memory _name, string memory _email) public {\n\n          //Check if name and email are empty\n          require(bytes(_profile).length >0 );\n          require(bytes(_uid).length >0 );\n          require(bytes(_name).length >0 );\n          require(bytes(_email).length >0 );\n\n          //Increase Registration Count\n          registrationCount ++;\n\n          //Create Event\n          students[registrationCount] = Student(registrationCount, _profile, _uid, _name, _email, msg.sender);\n\n          //Trigger Event\n          emit register(registrationCount, _profile, _uid, _name, _email, msg.sender);\n    }\n\n}\n",
  "sourcePath": "/home/shrish/cert/contracts/Certify.sol",
  "compiler": {
    "name": "solc",
    "version": "0.5.16+commit.9c3226ce.Emscripten.clang"
  },
  "schemaVersion": "3.0.23",
  "updatedAt": "2020-03-23T02:27:16.558Z",
  "networkType": "ethereum",
  "devdoc": {
    "methods": {}
  },
  "userdoc": {
    "methods": {}
  }
}